---
layout: jupyter
title: web3py 基础
website: ''
tags: tech ethereum web3py 
---

## Basic function   
pip install web3  


```python
from web3 import Web3, HTTPProvider, IPCProvider, WebsocketProvider
```


```python
Web3.api
```




    <property at 0x7f84d2649598>




```python
# 链接JSON-RPC servers.
web3 = Web3(HTTPProvider("HTTP://192.168.200.215:7545"))
```


```python
# the current Web3 version
web3.api
```




    '5.0.1'




```python
web3.version
```




    <web3.version.Version at 0x7f84d251cda0>



### Base API


```python
Web3.toHex(text= "hello world!")
```




    '0x68656c6c6f20776f726c6421'




```python
web3.toHex(text= "hello world!") #也可用实例调用
```




    '0x68656c6c6f20776f726c6421'




```python
Web3.toWei(1, 'ether')
```




    1000000000000000000



### eth API


```python
web3.eth.coinbase
```




    '0x0E25F0a98bd2ce8f01BBa053BE509E47f2f99E91'




```python
web3.eth.getBlock('latest')
```




    AttributeDict({'number': 29,
     'hash': HexBytes('0xa1c9c1bf03839e124c81f5491e658415a92a40de79f3127ec1122c3994c2a42a'),
     'parentHash': HexBytes('0x20b5f759dac943a6af461bdd17f2c2dabe14355f9c30b92cb6f64595ec48f6b8'),
     'mixHash': HexBytes('0x0000000000000000000000000000000000000000000000000000000000000000'),
     'nonce': HexBytes('0x0000000000000000'),
     'sha3Uncles': HexBytes('0x1dcc4de8dec75d7aab85b567b6ccd41ad312451b948a7413f0a142fd40d49347'),
     'logsBloom': HexBytes('0x00000000000000000000000000000000000000000000000000000000000000000000000000000000000000000000000000000000000000000000000000000000000000000000000000000000000000000000000000000000000000000000000000000000000000000000000000000000000000000000000000000000000000000000000000000000000000000000000000000000000000000000000000000000000000000000000000000000000000000000000000000000000000000000000000000000000000000000000000000000000000000000000000000000000000000000000000000000000000000000000000000000000000000000000000000000'),
     'transactionsRoot': HexBytes('0xa9c7e6af0ba39c02a538c95abb003bcd722a6d3ec68acf26d3303fa75f354901'),
     'stateRoot': HexBytes('0x80ea4c049476118aeb98df59d6e586ea784346846fd25110ff7cb438f38cac5f'),
     'receiptsRoot': HexBytes('0x056b23fbba480696b65fe5a59b8f2148a1299103c4f57df839233af2cf4ca2d2'),
     'miner': '0x0000000000000000000000000000000000000000',
     'difficulty': 0,
     'totalDifficulty': 0,
     'extraData': HexBytes('0x'),
     'size': 1000,
     'gasLimit': 6721975,
     'gasUsed': 21000,
     'timestamp': 1570635551,
     'transactions': [HexBytes('0x41b6f0fab3cbb3663f2ee4bdb166a56d795ecedfd9b3231cf6dac673032cfb3f')],
     'uncles': []})




```python
web3.eth.account
```




    <eth_account.account.Account at 0x7f84d367bb70>




```python
list = web3.eth.accounts
list 
```




    ['0x0E25F0a98bd2ce8f01BBa053BE509E47f2f99E91',
     '0xEB8384eBba808E10af03AE71eF2c7BAAE40dFd06',
     '0x37CEA667403DF99E7a3Fb3cae8BA5384755D597b',
     '0xba6e744339fbFdA785A96656dDE3c29ff4a792Fd',
     '0x100F0244cd5dc8D51eA3800F03C353EF84BEE42d',
     '0x59ec84Acb01e485Bf54a8Fa0FD72155C3313F1a9',
     '0xC8541e2622A0F66e9bCb89Ddd0416612cfA832B2',
     '0xed83f120DA90F4e1DEA1D52684f74cA071c58c60',
     '0xa1DddEBCEed2DA2E306E49F3B8Ed4FAb96F95617',
     '0x34B532ce792Be852296C216bc5600e6823b86117']




```python
web3.eth.defaultAccount
```




    <web3._utils.empty.Empty at 0x7f84d3642f60>




```python
web3.eth.defaultBlock
```




    'latest'




```python
web3.eth.gasPrice
```




    20000000000




```python
web3.eth.getBalance(list[0])
```




    99193365219999999022




```python
# whether the node is currently mining.
web3.eth.mining
```




    True




```python
web3.eth.hashrate
```




    0




```python
web3.eth.blockNumber
```




    27




```python
# the id of the current Ethereum protocol version.
web3.eth.protocolVersion
```




    '99'




```python
web3.eth.chainId
```




    1337



### send Transaction


```python
# return TX HASH
web3.eth.sendTransaction({
    'from' :list[0],
    'to' : list[1],
    'value': Web3.toWei(0.15, 'ether')
})
```




    HexBytes('0xae39f774e7943ffc5c64594386ebb552ebf339c58054da17e6ef8a6ddd52cccf')




```python
web3.eth.getTransaction('0x20e571fd0e61fb38a628d638b0bc10f8185f827e109c46ec538619c2493a6203')
```




    AttributeDict({'hash': HexBytes('0x20e571fd0e61fb38a628d638b0bc10f8185f827e109c46ec538619c2493a6203'),
     'nonce': 0,
     'blockHash': HexBytes('0xced090c959eee2d74565083f183b0a2c2091e5d890659c660d93e532f95028e6'),
     'blockNumber': 1,
     'transactionIndex': 0,
     'from': '0x0E25F0a98bd2ce8f01BBa053BE509E47f2f99E91',
     'to': '0xEB8384eBba808E10af03AE71eF2c7BAAE40dFd06',
     'value': 150000000000000000,
     'gas': 121000,
     'gasPrice': 20000000000,
     'input': '0x',
     'v': 28,
     'r': HexBytes('0xfa97911bb415cab8bd53875ded5859591011cfc9969798e85c25358418d1b992'),
     's': HexBytes('0x5b35ec96820971bbc7c69f6bb7fa832ad4af8f2345f986aabdd7593acc90eff7')})



#### sent signed Transaction.


```python
privatekey = '0x'+'c7391bfcd18888e3ce3a2c86616a04c7cdf20711f6bf5e214aefef048bf2bf4a'
```


```python
rawTx = dict(
    nonce=web3.eth.getTransactionCount(web3.eth.coinbase),
    gasPrice=web3.eth.gasPrice,
    gas=100000,
    to=list[2],
    value= Web3.toWei(0.15, 'ether'),
    data=b'',
    )
rawTx
```




    {'nonce': 17,
     'gasPrice': 20000000000,
     'gas': 100000,
     'to': '0x37CEA667403DF99E7a3Fb3cae8BA5384755D597b',
     'value': 150000000000000000,
     'data': b''}




```python
signedTx = web3.eth.signTransaction(rawTx,privatekey)
```


    ---------------------------------------------------------------------------

    TypeError                                 Traceback (most recent call last)

    <ipython-input-30-0d0d7c5fd4b4> in <module>
    ----> 1 signedTx = web3.eth.signTransaction(rawTx,privatekey)
    

    TypeError: signTransaction() takes 2 positional arguments but 3 were given



```python
signedTx = web3.eth.account.signTransaction(rawTx,privatekey)
signedTx
```




    AttributeDict({'rawTransaction': HexBytes('0xf86d118504a817c800830186a09437cea667403df99e7a3fb3cae8ba5384755d597b880214e8348c4f0000801ba041d6b0ef3306af380b841554eb12eeefcec001ee53ff8b95e7d4af36ec55dacfa036ff952368f312202dda1e4c862cf86f2fed62435ff196118e6941e46a6d5f25'),
     'hash': HexBytes('0x41b6f0fab3cbb3663f2ee4bdb166a56d795ecedfd9b3231cf6dac673032cfb3f'),
     'r': 29779661585932854776916606640124424611505161521123387598170269716935177788111,
     's': 24876469139871149982743517360112135051776908121738709091276678154556361498405,
     'v': 27})




```python
web3.eth.sendRawTransaction(signedTx.rawTransaction)
```




    HexBytes('0x41b6f0fab3cbb3663f2ee4bdb166a56d795ecedfd9b3231cf6dac673032cfb3f')



## Interact with Smart Contract

### Compile Smart Contract
sudo add-apt-repository ppa:ethereum/ethereum    
sudo apt-get update    
sudo apt-get install solc        
pip install py-solc     
  


```python
from solcx import compile_standard
```


```python
# read sol file. 
with open("./contracts/add.sol") as f:
    data = f.read()
data    
```




    'pragma solidity ^0.5.0;\n\ncontract Calc{\n\n  uint result;\n\n\n  function add(uint a, uint b) public returns(uint){\n    result = a + b;\n    return result;\n  }\n\n\n  function getCount() public view returns (uint){\n    return result;\n  }\n}'




```python
input = {
    "language": "Solidity",
    "sources": {
        "add.sol": {
            "content": data
        }
    },
    "settings":
    {
        "outputSelection": {
            "*": {
                "*": [
                    "metadata", "evm.bytecode", "evm.bytecode.sourceMap"
                ]
            }
        }
    }
}
```


```python
compiledSol = compile_standard(input) 
compiledSol
```




    {'contracts': {'add.sol': {'Calc': {'evm': {'bytecode': {'linkReferences': {},
          'object': '608060405234801561001057600080fd5b5060f08061001f6000396000f3fe6080604052348015600f57600080fd5b506004361060325760003560e01c8063771602f7146037578063a87d942c146080575b600080fd5b606a60048036036040811015604b57600080fd5b810190808035906020019092919080359060200190929190505050609c565b6040518082815260200191505060405180910390f35b608660b2565b6040518082815260200191505060405180910390f35b6000818301600081905550600054905092915050565b6000805490509056fea265627a7a72305820e61d34a5b8b17790906c15843ef50c7b082984b7e6377b87b4ad0c628395d94064736f6c634300050a0032',
          'opcodes': 'PUSH1 0x80 PUSH1 0x40 MSTORE CALLVALUE DUP1 ISZERO PUSH2 0x10 JUMPI PUSH1 0x0 DUP1 REVERT JUMPDEST POP PUSH1 0xF0 DUP1 PUSH2 0x1F PUSH1 0x0 CODECOPY PUSH1 0x0 RETURN INVALID PUSH1 0x80 PUSH1 0x40 MSTORE CALLVALUE DUP1 ISZERO PUSH1 0xF JUMPI PUSH1 0x0 DUP1 REVERT JUMPDEST POP PUSH1 0x4 CALLDATASIZE LT PUSH1 0x32 JUMPI PUSH1 0x0 CALLDATALOAD PUSH1 0xE0 SHR DUP1 PUSH4 0x771602F7 EQ PUSH1 0x37 JUMPI DUP1 PUSH4 0xA87D942C EQ PUSH1 0x80 JUMPI JUMPDEST PUSH1 0x0 DUP1 REVERT JUMPDEST PUSH1 0x6A PUSH1 0x4 DUP1 CALLDATASIZE SUB PUSH1 0x40 DUP2 LT ISZERO PUSH1 0x4B JUMPI PUSH1 0x0 DUP1 REVERT JUMPDEST DUP2 ADD SWAP1 DUP1 DUP1 CALLDATALOAD SWAP1 PUSH1 0x20 ADD SWAP1 SWAP3 SWAP2 SWAP1 DUP1 CALLDATALOAD SWAP1 PUSH1 0x20 ADD SWAP1 SWAP3 SWAP2 SWAP1 POP POP POP PUSH1 0x9C JUMP JUMPDEST PUSH1 0x40 MLOAD DUP1 DUP3 DUP2 MSTORE PUSH1 0x20 ADD SWAP2 POP POP PUSH1 0x40 MLOAD DUP1 SWAP2 SUB SWAP1 RETURN JUMPDEST PUSH1 0x86 PUSH1 0xB2 JUMP JUMPDEST PUSH1 0x40 MLOAD DUP1 DUP3 DUP2 MSTORE PUSH1 0x20 ADD SWAP2 POP POP PUSH1 0x40 MLOAD DUP1 SWAP2 SUB SWAP1 RETURN JUMPDEST PUSH1 0x0 DUP2 DUP4 ADD PUSH1 0x0 DUP2 SWAP1 SSTORE POP PUSH1 0x0 SLOAD SWAP1 POP SWAP3 SWAP2 POP POP JUMP JUMPDEST PUSH1 0x0 DUP1 SLOAD SWAP1 POP SWAP1 JUMP INVALID LOG2 PUSH6 0x627A7A723058 KECCAK256 0xe6 SAR CALLVALUE 0xa5 0xb8 0xb1 PUSH24 0x90906C15843EF50C7B082984B7E6377B87B4AD0C628395D9 BLOCKHASH PUSH5 0x736F6C6343 STOP SDIV EXP STOP ORIGIN ',
          'sourceMap': '25:205:0:-;;;;8:9:-1;5:2;;;30:1;27;20:12;5:2;25:205:0;;;;;;;'}},
        'metadata': '{"compiler":{"version":"0.5.10+commit.5a6ea5b1"},"language":"Solidity","output":{"abi":[{"constant":false,"inputs":[{"name":"a","type":"uint256"},{"name":"b","type":"uint256"}],"name":"add","outputs":[{"name":"","type":"uint256"}],"payable":false,"stateMutability":"nonpayable","type":"function"},{"constant":true,"inputs":[],"name":"getCount","outputs":[{"name":"","type":"uint256"}],"payable":false,"stateMutability":"view","type":"function"}],"devdoc":{"methods":{}},"userdoc":{"methods":{}}},"settings":{"compilationTarget":{"add.sol":"Calc"},"evmVersion":"petersburg","libraries":{},"optimizer":{"enabled":false,"runs":200},"remappings":[]},"sources":{"add.sol":{"keccak256":"0xbe9e61ad987dd22eb290b848998f585f3d3030fb5d1b9bc65e4cb47c476b953c","urls":["bzzr://71ee62531d28f14307962f359f6845065f3a49fae23e256c26b6df712fea8dff","dweb:/ipfs/Qmc1vQh8t9jU1KmZnURNG6mkKgGDDFJbvHjJUu19a5aaNJ"]}},"version":1}'}}},
     'sources': {'add.sol': {'id': 0}}}




```python
bytecode = compiledSol['contracts']['add.sol']['Calc']['evm']['bytecode']['object']
bytecode
```




    '608060405234801561001057600080fd5b5060f08061001f6000396000f3fe6080604052348015600f57600080fd5b506004361060325760003560e01c8063771602f7146037578063a87d942c146080575b600080fd5b606a60048036036040811015604b57600080fd5b810190808035906020019092919080359060200190929190505050609c565b6040518082815260200191505060405180910390f35b608660b2565b6040518082815260200191505060405180910390f35b6000818301600081905550600054905092915050565b6000805490509056fea265627a7a72305820e61d34a5b8b17790906c15843ef50c7b082984b7e6377b87b4ad0c628395d94064736f6c634300050a0032'




```python
import json
```


```python
abi = json.loads(compiledSol['contracts']['add.sol']['Calc']['metadata'])['output']['abi']
abi
```




    [{'constant': False,
      'inputs': [{'name': 'a', 'type': 'uint256'},
       {'name': 'b', 'type': 'uint256'}],
      'name': 'add',
      'outputs': [{'name': '', 'type': 'uint256'}],
      'payable': False,
      'stateMutability': 'nonpayable',
      'type': 'function'},
     {'constant': True,
      'inputs': [],
      'name': 'getCount',
      'outputs': [{'name': '', 'type': 'uint256'}],
      'payable': False,
      'stateMutability': 'view',
      'type': 'function'}]



### Create SC


```python
from web3 import Web3, HTTPProvider
```


```python
web3 = Web3(HTTPProvider("HTTP://192.168.200.215:7545"))
```


```python
CalcContract = web3.eth.contract(abi=abi, bytecode= bytecode)
CalcContract
```




    web3._utils.datatypes.Contract




```python
type(CalcContract)
```




    web3._utils.datatypes.PropertyCheckingFactory



### deploy SC


```python
# 输入布置合约的地址
tx_hash = CalcContract.constructor().transact({
    "from":list[0]
})
```


```python
tx_receipt = web3.eth.waitForTransactionReceipt(tx_hash) 
tx_receipt
```




    AttributeDict({'transactionHash': HexBytes('0x46a83e559f810b9450b8554eaa646415a97889adc3007083dbd7d7376f3a11d2'),
     'transactionIndex': 0,
     'blockHash': HexBytes('0x08b512860e53a3d71c73b1d98a9f53c807be6c813617025eef27a6cabd5a5f85'),
     'blockNumber': 30,
     'from': '0x0e25f0a98bd2ce8f01bba053be509e47f2f99e91',
     'to': None,
     'gasUsed': 118567,
     'cumulativeGasUsed': 118567,
     'contractAddress': '0xf5e1A96F2CC423eA2dFb774a75f89E8e785a0Da6',
     'logs': [],
     'status': 1,
     'logsBloom': HexBytes('0x00000000000000000000000000000000000000000000000000000000000000000000000000000000000000000000000000000000000000000000000000000000000000000000000000000000000000000000000000000000000000000000000000000000000000000000000000000000000000000000000000000000000000000000000000000000000000000000000000000000000000000000000000000000000000000000000000000000000000000000000000000000000000000000000000000000000000000000000000000000000000000000000000000000000000000000000000000000000000000000000000000000000000000000000000000000'),
     'v': '0x1b',
     'r': '0xad9f88e1b05b2ce663293d46148de9b25ac7472f9b4a6dce8020efa3a36eece8',
     's': '0x7603c538008a97ef14c93f2417ad2ee9e323af07263d3c4cb7a56d9c8d2c57b4'})



### Invoke SC


```python
# get the local SC instance 
CalcInstance = web3.eth.contract(
    address=tx_receipt.contractAddress,
    abi = abi
)
CalcInstance
```




    <web3._utils.datatypes.Contract at 0x7f84d222b9b0>




```python
CalcInstance.functions.add(8,9).transact({
    'from':list[3]
})
```




    HexBytes('0xfbb2930d380489db25e9bf32c589ba32bff77c05e47e9f9497278175bb75b14a')




```python
CalcInstance.functions.getCount().call()
```




    17




```python
#executing the transaction locally using the eth_call API. This will not create a new public transaction.
CalcInstance.functions.add(8,9).call()
```




    17




```python
type(CalcInstance)
```




    web3._utils.datatypes.Contract




```python

```
