---
layout: jupyter
title: web3py 操作 Smart Contract
website: ''
tags: tech ethereum web3py 
---

## Basic function   
pip install web3  


```python
from web3 import Web3, HTTPProvider, IPCProvider, WebsocketProvider
```


```python
Web3.api
```




    <property at 0x7f090ce69ea8>




```python
# 链接JSON-RPC servers.
web3 = Web3(HTTPProvider("HTTP://127.0.0.1:7545"))
```


```python
web3.clientVersion
```




    'EthereumJS TestRPC/v2.6.1-beta.0/ethereum-js'




```python
# the current Web3 version
web3.api
```




    '5.0.1'




```python
web3.version
```




    <web3.version.Version at 0x7f08ed6b7a58>



### Base API


```python
#The primitive argument must be one of: bytes,bytearray, int or bool and not str
Web3.toHex("hello world!") 
```


    ---------------------------------------------------------------------------

    TypeError                                 Traceback (most recent call last)

    <ipython-input-39-807742cbd9af> in <module>
          1 #The primitive argument must be one of: bytes,bytearray, int or bool and not str
    ----> 2 Web3.toHex("hello world!")
    

    /usr/local/miniconda3/lib/python3.7/site-packages/eth_utils/decorators.py in wrapper(*args, **kwargs)
         72         if len(args) == 0 and "primitive" not in kwargs:
         73             _assert_hexstr_or_text_kwarg_is_text_type(**kwargs)
    ---> 74         return to_wrap(*args, **kwargs)
         75 
         76     return wrapper


    /usr/local/miniconda3/lib/python3.7/site-packages/eth_utils/conversions.py in to_hex(primitive, hexstr, text)
         30     elif is_string(primitive):
         31         raise TypeError(
    ---> 32             "Unsupported type: The primitive argument must be one of: bytes,"
         33             "bytearray, int or bool and not str"
         34         )


    TypeError: Unsupported type: The primitive argument must be one of: bytes,bytearray, int or bool and not str



```python
Web3.toHex(text= "hello world!")
```




    '0x68656c6c6f20776f726c6421'




```python
web3.toHex(text= "hello world!") #也可用实例调用
```




    '0x68656c6c6f20776f726c6421'




```python
Web3.toWei(1, 'ether')
```




    1000000000000000000



### eth API


```python
web3.eth.coinbase
```




    '0x0E25F0a98bd2ce8f01BBa053BE509E47f2f99E91'




```python
web3.eth.getBlock('latest')
```




    AttributeDict({'number': 0,
     'hash': HexBytes('0x8550d709885cd5869e3fa0b3ca24bc8a7b110254016c080de46e28fb3ee76165'),
     'parentHash': HexBytes('0x0000000000000000000000000000000000000000000000000000000000000000'),
     'mixHash': HexBytes('0x0000000000000000000000000000000000000000000000000000000000000000'),
     'nonce': HexBytes('0x0000000000000000'),
     'sha3Uncles': HexBytes('0x1dcc4de8dec75d7aab85b567b6ccd41ad312451b948a7413f0a142fd40d49347'),
     'logsBloom': HexBytes('0x00000000000000000000000000000000000000000000000000000000000000000000000000000000000000000000000000000000000000000000000000000000000000000000000000000000000000000000000000000000000000000000000000000000000000000000000000000000000000000000000000000000000000000000000000000000000000000000000000000000000000000000000000000000000000000000000000000000000000000000000000000000000000000000000000000000000000000000000000000000000000000000000000000000000000000000000000000000000000000000000000000000000000000000000000000000'),
     'transactionsRoot': HexBytes('0x56e81f171bcc55a6ff8345e692c0f86e5b48e01b996cadc001622fb5e363b421'),
     'stateRoot': HexBytes('0x760829887636354de312ed110f385ffde669c5ea698bc1809c820bc84181b68b'),
     'receiptsRoot': HexBytes('0x56e81f171bcc55a6ff8345e692c0f86e5b48e01b996cadc001622fb5e363b421'),
     'miner': '0x0000000000000000000000000000000000000000',
     'difficulty': 0,
     'totalDifficulty': 0,
     'extraData': HexBytes('0x'),
     'size': 1000,
     'gasLimit': 6721975,
     'gasUsed': 0,
     'timestamp': 1566467109,
     'transactions': [],
     'uncles': []})




```python
web3.eth.account
```




    <eth_account.account.Account at 0x7f08d79550b8>




```python
list = web3.eth.accounts
list 
```




    ['0x0E25F0a98bd2ce8f01BBa053BE509E47f2f99E91',
     '0xEB8384eBba808E10af03AE71eF2c7BAAE40dFd06',
     '0x37CEA667403DF99E7a3Fb3cae8BA5384755D597b',
     '0xba6e744339fbFdA785A96656dDE3c29ff4a792Fd',
     '0x100F0244cd5dc8D51eA3800F03C353EF84BEE42d',
     '0x59ec84Acb01e485Bf54a8Fa0FD72155C3313F1a9',
     '0xC8541e2622A0F66e9bCb89Ddd0416612cfA832B2',
     '0xed83f120DA90F4e1DEA1D52684f74cA071c58c60',
     '0xa1DddEBCEed2DA2E306E49F3B8Ed4FAb96F95617',
     '0x34B532ce792Be852296C216bc5600e6823b86117']




```python
web3.eth.defaultAccount
```




    <web3._utils.empty.Empty at 0x7f08d799b518>




```python
web3.eth.defaultBlock
```




    'latest'




```python
web3.eth.gasPrice
```




    20000000000




```python
web3.eth.getBalance(list[0])
```




    100000000000000000000




```python
# whether the node is currently mining.
web3.eth.mining
```




    True




```python
web3.eth.hashrate
```




    0




```python
web3.eth.blockNumber
```




    0




```python
# the id of the current Ethereum protocol version.
web3.eth.protocolVersion
```




    '99'




```python
web3.eth.chainId
```




    1337



### send Transaction


```python
# return TX HASH
web3.eth.sendTransaction({
    'from' :list[0],
    'to' : list[1],
    'value': Web3.toWei(0.15, 'ether')
})
```




    HexBytes('0x7ba3850cd3e71c61fab48f829d73270d65afb80b16661484d7b0901fdf68c203')




```python
web3.eth.getTransaction('0x20e571fd0e61fb38a628d638b0bc10f8185f827e109c46ec538619c2493a6203')
```




    AttributeDict({'hash': HexBytes('0x20e571fd0e61fb38a628d638b0bc10f8185f827e109c46ec538619c2493a6203'),
     'nonce': 0,
     'blockHash': HexBytes('0xced090c959eee2d74565083f183b0a2c2091e5d890659c660d93e532f95028e6'),
     'blockNumber': 1,
     'transactionIndex': 0,
     'from': '0x0E25F0a98bd2ce8f01BBa053BE509E47f2f99E91',
     'to': '0xEB8384eBba808E10af03AE71eF2c7BAAE40dFd06',
     'value': 150000000000000000,
     'gas': 121000,
     'gasPrice': 20000000000,
     'input': '0x',
     'v': 28,
     'r': HexBytes('0xfa97911bb415cab8bd53875ded5859591011cfc9969798e85c25358418d1b992'),
     's': HexBytes('0x5b35ec96820971bbc7c69f6bb7fa832ad4af8f2345f986aabdd7593acc90eff7')})




```python

```


    ---------------------------------------------------------------------------

    NameError                                 Traceback (most recent call last)

    <ipython-input-60-5a7a86c374bb> in <module>
    ----> 1 web3.eth.getTransaction(HexBytes('0x20e571fd0e61fb38a628d638b0bc10f8185f827e109c46ec538619c2493a6203'))
    

    NameError: name 'HexBytes' is not defined


#### sent signed Transaction.


```python
privatekey = '0x'+'c7391bfcd18888e3ce3a2c86616a04c7cdf20711f6bf5e214aefef048bf2bf4a'
```


```python
rawTx = dict(
    nonce=web3.eth.getTransactionCount(web3.eth.coinbase),
    gasPrice=web3.eth.gasPrice,
    gas=100000,
    to=list[2],
    value= Web3.toWei(0.15, 'ether'),
    data=b'',
    )
rawTx
```




    {'nonce': 1,
     'gasPrice': 20000000000,
     'gas': 100000,
     'to': '0x37CEA667403DF99E7a3Fb3cae8BA5384755D597b',
     'value': 150000000000000000,
     'data': b''}




```python
signedTx = web3.eth.signTransaction(rawTx,privatekey)
```


    ---------------------------------------------------------------------------

    TypeError                                 Traceback (most recent call last)

    <ipython-input-70-0d0d7c5fd4b4> in <module>
    ----> 1 signedTx = web3.eth.signTransaction(rawTx,privatekey)
    

    TypeError: signTransaction() takes 2 positional arguments but 3 were given



```python
signedTx = web3.eth.account.signTransaction(rawTx,privatekey)
signedTx
```




    AttributeDict({'rawTransaction': HexBytes('0xf86d018504a817c800830186a09437cea667403df99e7a3fb3cae8ba5384755d597b880214e8348c4f0000801ba040d3aa5b98d0efc70e09504d69fb84fd21ae26f5ffdc840e751546027d24e313a059534422156ae87d3e9eccc480610b2fc5851770252f7e294ac4032018b43dc8'),
     'hash': HexBytes('0xca3645a79af5870a62cc49d6082eb2a1370b616454218f34480e56d2485a0837'),
     'r': 29322002806324808934268296655514525802009126704047563344810591654061820666643,
     's': 40402962067932620497648706004071628228538649321899559618617260429210474003912,
     'v': 27})




```python
web3.eth.sendRawTransaction(signedTx.rawTransaction)
```




    HexBytes('0xca3645a79af5870a62cc49d6082eb2a1370b616454218f34480e56d2485a0837')



## Interact with Smart Contract

### Compile Smart Contract
sudo add-apt-repository ppa:ethereum/ethereum    
sudo apt-get update    
sudo apt-get install solc        
pip install py-solc     
  


```python
from solc import compile_standard
```


```python
# read sol file. 
with open("add.sol") as f:
    data = f.read()
data    
```




    'pragma solidity ^0.5.0;\n\ncontract Calc{\n\n  uint result;\n\n\n  function add(uint a, uint b) public returns(uint){\n    result = a + b;\n    return result;\n  }\n\n\n  function getCount() public view returns (uint){\n    return result;\n  }\n}'




```python
input = {
    "language": "Solidity",
    "sources": {
        "add.sol": {
            "content": data
        }
    },
    "settings":
    {
        "outputSelection": {
            "*": {
                "*": [
                    "metadata", "evm.bytecode", "evm.bytecode.sourceMap"
                ]
            }
        }
    }
}
```


```python
compiledSol = compile_standard(input) 
compiledSol
```




    {'contracts': {'add.sol': {'Calc': {'evm': {'bytecode': {'linkReferences': {},
          'object': '608060405234801561001057600080fd5b5060f08061001f6000396000f3fe6080604052348015600f57600080fd5b506004361060325760003560e01c8063771602f7146037578063a87d942c146080575b600080fd5b606a60048036036040811015604b57600080fd5b810190808035906020019092919080359060200190929190505050609c565b6040518082815260200191505060405180910390f35b608660b2565b6040518082815260200191505060405180910390f35b6000818301600081905550600054905092915050565b6000805490509056fea265627a7a72315820cb42c154233b3977ed55f6c4bd28341b00072fcdfb791ad35d90e0d8e30fbcc464736f6c634300050b0032',
          'opcodes': 'PUSH1 0x80 PUSH1 0x40 MSTORE CALLVALUE DUP1 ISZERO PUSH2 0x10 JUMPI PUSH1 0x0 DUP1 REVERT JUMPDEST POP PUSH1 0xF0 DUP1 PUSH2 0x1F PUSH1 0x0 CODECOPY PUSH1 0x0 RETURN INVALID PUSH1 0x80 PUSH1 0x40 MSTORE CALLVALUE DUP1 ISZERO PUSH1 0xF JUMPI PUSH1 0x0 DUP1 REVERT JUMPDEST POP PUSH1 0x4 CALLDATASIZE LT PUSH1 0x32 JUMPI PUSH1 0x0 CALLDATALOAD PUSH1 0xE0 SHR DUP1 PUSH4 0x771602F7 EQ PUSH1 0x37 JUMPI DUP1 PUSH4 0xA87D942C EQ PUSH1 0x80 JUMPI JUMPDEST PUSH1 0x0 DUP1 REVERT JUMPDEST PUSH1 0x6A PUSH1 0x4 DUP1 CALLDATASIZE SUB PUSH1 0x40 DUP2 LT ISZERO PUSH1 0x4B JUMPI PUSH1 0x0 DUP1 REVERT JUMPDEST DUP2 ADD SWAP1 DUP1 DUP1 CALLDATALOAD SWAP1 PUSH1 0x20 ADD SWAP1 SWAP3 SWAP2 SWAP1 DUP1 CALLDATALOAD SWAP1 PUSH1 0x20 ADD SWAP1 SWAP3 SWAP2 SWAP1 POP POP POP PUSH1 0x9C JUMP JUMPDEST PUSH1 0x40 MLOAD DUP1 DUP3 DUP2 MSTORE PUSH1 0x20 ADD SWAP2 POP POP PUSH1 0x40 MLOAD DUP1 SWAP2 SUB SWAP1 RETURN JUMPDEST PUSH1 0x86 PUSH1 0xB2 JUMP JUMPDEST PUSH1 0x40 MLOAD DUP1 DUP3 DUP2 MSTORE PUSH1 0x20 ADD SWAP2 POP POP PUSH1 0x40 MLOAD DUP1 SWAP2 SUB SWAP1 RETURN JUMPDEST PUSH1 0x0 DUP2 DUP4 ADD PUSH1 0x0 DUP2 SWAP1 SSTORE POP PUSH1 0x0 SLOAD SWAP1 POP SWAP3 SWAP2 POP POP JUMP JUMPDEST PUSH1 0x0 DUP1 SLOAD SWAP1 POP SWAP1 JUMP INVALID LOG2 PUSH6 0x627A7A723158 KECCAK256 0xcb TIMESTAMP 0xc1 SLOAD 0x23 EXTCODESIZE CODECOPY PUSH24 0xED55F6C4BD28341B00072FCDFB791AD35D90E0D8E30FBCC4 PUSH5 0x736F6C6343 STOP SDIV SIGNEXTEND STOP ORIGIN ',
          'sourceMap': '25:205:0:-;;;;8:9:-1;5:2;;;30:1;27;20:12;5:2;25:205:0;;;;;;;'}},
        'metadata': '{"compiler":{"version":"0.5.11+commit.22be8592"},"language":"Solidity","output":{"abi":[{"constant":false,"inputs":[{"internalType":"uint256","name":"a","type":"uint256"},{"internalType":"uint256","name":"b","type":"uint256"}],"name":"add","outputs":[{"internalType":"uint256","name":"","type":"uint256"}],"payable":false,"stateMutability":"nonpayable","type":"function"},{"constant":true,"inputs":[],"name":"getCount","outputs":[{"internalType":"uint256","name":"","type":"uint256"}],"payable":false,"stateMutability":"view","type":"function"}],"devdoc":{"methods":{}},"userdoc":{"methods":{}}},"settings":{"compilationTarget":{"add.sol":"Calc"},"evmVersion":"petersburg","libraries":{},"optimizer":{"enabled":false,"runs":200},"remappings":[]},"sources":{"add.sol":{"keccak256":"0xbe9e61ad987dd22eb290b848998f585f3d3030fb5d1b9bc65e4cb47c476b953c","urls":["bzz-raw://e78350ace817d60d6fc513b269a8344bf8bc2b2dff1c882f49928f0bca774fb0","dweb:/ipfs/Qmc1vQh8t9jU1KmZnURNG6mkKgGDDFJbvHjJUu19a5aaNJ"]}},"version":1}'}}},
     'sources': {'add.sol': {'id': 0}}}




```python
bytecode = compiledSol['contracts']['add.sol']['Calc']['evm']['bytecode']['object']
bytecode
```




    '608060405234801561001057600080fd5b5060f08061001f6000396000f3fe6080604052348015600f57600080fd5b506004361060325760003560e01c8063771602f7146037578063a87d942c146080575b600080fd5b606a60048036036040811015604b57600080fd5b810190808035906020019092919080359060200190929190505050609c565b6040518082815260200191505060405180910390f35b608660b2565b6040518082815260200191505060405180910390f35b6000818301600081905550600054905092915050565b6000805490509056fea265627a7a72315820cb42c154233b3977ed55f6c4bd28341b00072fcdfb791ad35d90e0d8e30fbcc464736f6c634300050b0032'




```python
import json
```


```python
abi = json.loads(compiledSol['contracts']['add.sol']['Calc']['metadata'])['output']['abi']
abi
```




    [{'constant': False,
      'inputs': [{'internalType': 'uint256', 'name': 'a', 'type': 'uint256'},
       {'internalType': 'uint256', 'name': 'b', 'type': 'uint256'}],
      'name': 'add',
      'outputs': [{'internalType': 'uint256', 'name': '', 'type': 'uint256'}],
      'payable': False,
      'stateMutability': 'nonpayable',
      'type': 'function'},
     {'constant': True,
      'inputs': [],
      'name': 'getCount',
      'outputs': [{'internalType': 'uint256', 'name': '', 'type': 'uint256'}],
      'payable': False,
      'stateMutability': 'view',
      'type': 'function'}]



### Create SC


```python
CalcContract = web3.eth.contract(abi=abi, bytecode= bytecode)
CalcContract
```




    web3._utils.datatypes.Contract




```python
type(CalcContract)
```




    web3._utils.datatypes.PropertyCheckingFactory



### deploy SC


```python
# 输入布置合约的地址
tx_hash = CalcContract.constructor().transact({
    "from":list[0]
})
```


```python
tx_receipt = web3.eth.waitForTransactionReceipt(tx_hash) 
tx_receipt
```




    AttributeDict({'transactionHash': HexBytes('0x4b5f9eda0bdc6599d473bb3983e2b83b7b02b64df80074ef133fc32b0040890d'),
     'transactionIndex': 0,
     'blockHash': HexBytes('0x0ee03459cabeb8d9df7f457c54c4ab41121b4878bf98744f984f514f83ac78ed'),
     'blockNumber': 16,
     'from': '0x0e25f0a98bd2ce8f01bba053be509e47f2f99e91',
     'to': None,
     'gasUsed': 118503,
     'cumulativeGasUsed': 118503,
     'contractAddress': '0x744ba962237aF7Bf586DD67F44BEbbD68C01dcBf',
     'logs': [],
     'status': 1,
     'logsBloom': HexBytes('0x00000000000000000000000000000000000000000000000000000000000000000000000000000000000000000000000000000000000000000000000000000000000000000000000000000000000000000000000000000000000000000000000000000000000000000000000000000000000000000000000000000000000000000000000000000000000000000000000000000000000000000000000000000000000000000000000000000000000000000000000000000000000000000000000000000000000000000000000000000000000000000000000000000000000000000000000000000000000000000000000000000000000000000000000000000000'),
     'v': '0x1c',
     'r': '0x456641fd79d883de703cb4159999435e1695ee2cba992f887d83ce8c3b704ad5',
     's': '0x16e62c4f54c651ee246df8c8d874ad4d2c5176a5d3dab51f490ca71aef880ddc'})



### Invoke SC


```python
# get the local SC instance 
CalcInstance = web3.eth.contract(
    address=tx_receipt.contractAddress,
    abi = abi
)
CalcInstance
```




    <web3._utils.datatypes.Contract at 0x7f13b1e7b198>




```python
CalcInstance.functions.add(8,9).transact({
    'from':list[3]
})
```




    HexBytes('0x17459ed5295ecd70918f757db481a07698bd2bb27301a838e6dbccab0c70fb99')




```python
CalcInstance.functions.getCount().call()
```




    17




```python
#executing the transaction locally using the eth_call API. This will not create a new public transaction.
CalcInstance.functions.add(8,9).call()
```




    17




```python
type(CalcInstance)
```




    web3._utils.datatypes.Contract


